:020000040800F2
:100000000028002001160008191400082114000817
:1000100029140008311400083914000800000000F9
:100020000000000000000000000000004114000873
:100030004D14000800000000591400086514000861
:100040004916000849160008491600084916000814
:100050004916000849160008491600084916000804
:1000600049160008491600084916000849160008F4
:1000700049160008491600084916000849160008E4
:1000800049160008491600084916000849160008D4
:1000900049160008491600084916000849160008C4
:1000A00049160008491600084916000849160008B4
:1000B000491600084916000800000000491600080B
:1000C0004916000800000000000000004916000862
:1000D0000000000049160008491600080000000052
:1000E00049160008491600084916000800000000DB
:1000F0000000000000000000000000000000000000
:0C01000000000000000000005FF808F1A3
:1001100010B5054C237833B9044B13B10448AFF341
:1001200000800123237010BDD401002000000000D6
:100130004460000808B5034B1BB103490348AFF303
:10014000008008BD00000000D801002044600008C5
:10015000034613F8012B002AFBD1181A0138704707
:1001600081F0004102E000BF83F0004330B54FEA68
:1001700041044FEA430594EA050F08BF90EA020FD5
:100180001FBF54EA000C55EA020C7FEA645C7FEA68
:10019000655C00F0E2804FEA5454D4EB5555B8BF8B
:1001A0006D420CDD2C4480EA020281EA030382EAFC
:1001B000000083EA010180EA020281EA0303362D8E
:1001C00088BF30BD11F0004F4FEA01314FF4801C61
:1001D0004CEA113102D0404261EB410113F0004F73
:1001E0004FEA03334CEA133302D0524263EB43032A
:1001F00094EA050F00F0A780A4F10104D5F1200EC8
:100200000DDB02FA0EFC22FA05F2801841F1000122
:1002100003FA0EF2801843FA05F359410EE0A5F1F6
:1002200020050EF1200E012A03FA0EFC28BF4CF027
:10023000020C43FA05F3C01851EBE37101F00045DD
:1002400007D54FF0000EDCF1000C7EEB00006EEBEA
:100250000101B1F5801F1BD3B1F5001F0CD3490874
:100260005FEA30004FEA3C0C04F101044FEA4452CB
:1002700012F5800F80F09A80BCF1004F08BF5FEA52
:10028000500C50F1000041EB045141EA050130BD32
:100290005FEA4C0C404141EB0101013C28BFB1F544
:1002A000801FE9D291F0000F04BF01460020B1FA8F
:1002B00081F308BF2033A3F10B03B3F120020CDA62
:1002C0000C3208DD02F1140CC2F10C0201FA0CF040
:1002D00021FA02F10CE002F11402D8BFC2F1200CA5
:1002E00001FA02F120FA0CFCDCBF41EA0C0190405B
:1002F000E41AA2BF01EB0451294330BD6FEA0404A4
:100300001F3C1CDA0C340EDC04F11404C4F120028E
:1003100020FA04F001FA02F340EA030021FA04F3A0
:1003200045EA030130BDC4F10C04C4F1200220FAF7
:1003300002F001FA04F340EA0300294630BD21FA35
:1003400004F0294630BD94F0000F83F4801306BFFB
:1003500081F480110134013D4EE77FEA645C18BFEF
:100360007FEA655C29D094EA050F08BF90EA020F86
:1003700005D054EA000C04BF1946104630BD91EA7E
:10038000030F1EBF0021002030BD5FEA545C05D181
:100390004000494128BF41F0004130BD14F58004C0
:1003A0003CBF01F5801130BD01F0004545F0FE4134
:1003B00041F470014FF0000030BD7FEA645C1ABF69
:1003C000194610467FEA655C1CBF0B46024650EAA0
:1003D000013406BF52EA033591EA030F41F40021CC
:1003E00030BD00BF90F0000F04BF0021704730B552
:1003F0004FF4806404F132044FF000054FF0000127
:1004000050E700BF90F0000F04BF0021704730B5E7
:100410004FF4806404F1320410F0004548BF4042BC
:100420004FF000013EE700BF42004FEAE2014FEA11
:1004300031014FEA02701FBF12F07F4393F07F4FEC
:1004400081F06051704732F07F4208BF704793F0EF
:100450007F4F04BF41F40021704730B54FF4607402
:1004600001F0004521F000411CE700BF50EA010205
:1004700008BF704730B54FF000050AE050EA0102AE
:1004800008BF704730B511F0004502D5404261EB1E
:1004900041014FF4806404F132045FEA915C3FF45F
:1004A000D8AE4FF003025FEADC0C18BF03325FEAFC
:1004B000DC0C18BF033202EBDC02C2F1200300FAAD
:1004C00003FC20FA02F001FA03FE40EA0E0021FAD2
:1004D00002F11444BDE600BF70B54FF0FF0C4CF4C0
:1004E000E06C1CEA11541DBF1CEA135594EA0C0F72
:1004F00095EA0C0F00F0DEF82C4481EA030621EAAD
:100500004C5123EA4C5350EA013518BF52EA0335E7
:1005100041F4801143F4801338D0A0FB02CE4FF099
:100520000005E1FB02E506F00042E0FB03E54FF0C9
:100530000006E1FB03569CF0000F18BF4EF0010EC1
:10054000A4F1FF04B6F5007F64F5407404D25FEABD
:100550004E0E6D4146EB060642EAC62141EA555170
:100560004FEAC52040EA5E504FEACE2EB4F1FD0CB2
:1005700088BFBCF5E06F1ED8BEF1004F08BF5FEA30
:10058000500E50F1000041EB045170BD06F00046E2
:1005900046EA010140EA020081EA0301B4EB5C048F
:1005A000C2BFD4EB0C0541EA045170BD41F4801187
:1005B0004FF0000E013C00F3AB8014F1360FDEBFAC
:1005C000002001F0004170BDC4F10004203C35DA88
:1005D0000C341BDC04F11404C4F1200500FA05F30B
:1005E00020FA04F001FA05F240EA020001F00042AC
:1005F00021F0004110EBD37021FA04F642EB060122
:100600005EEA430E08BF20EAD37070BDC4F10C044B
:10061000C4F1200500FA04F320FA05F001FA04F20F
:1006200040EA020001F0004110EBD37041F10001FB
:100630005EEA430E08BF20EAD37070BDC4F1200506
:1006400000FA05F24EEA020E20FA04F301FA05F26E
:1006500043EA020321FA04F001F0004121FA04F216
:1006600020EA020000EBD3705EEA430E08BF20EAE6
:10067000D37070BD94F0000F0FD101F00046400020
:1006800041EB010111F4801F08BF013CF7D041EAA2
:10069000060195F0000F18BF704703F000465200A6
:1006A00043EB030313F4801F08BF013DF7D043EA77
:1006B0000603704794EA0C0F0CEA135518BF95EA2D
:1006C0000C0F0CD050EA410618BF52EA4306D1D1B4
:1006D00081EA030101F000414FF0000070BD50EAD3
:1006E000410606BF1046194652EA430619D094EA5D
:1006F0000C0F02D150EA013613D195EA0C0F05D147
:1007000052EA03361CBF104619460AD181EA03019A
:1007100001F0004141F0FE4141F470014FF0000052
:1007200070BD41F0FE4141F4780170BD70B54FF0ED
:10073000FF0C4CF4E06C1CEA11541DBF1CEA13556D
:1007400094EA0C0F95EA0C0F00F0A7F8A4EB05044F
:1007500081EA030E52EA03354FEA013100F0888046
:100760004FEA03334FF0805545EA131343EA12630F
:100770004FEA022245EA111545EA10654FEA0026C4
:100780000EF000419D4208BF964244F1FD0404F57D
:10079000407402D25B084FEA3202B61A65EB0305D9
:1007A0005B084FEA32024FF480104FF4002CB6EB96
:1007B000020E75EB030E22BFB61A754640EA0C0016
:1007C0005B084FEA3202B6EB020E75EB030E22BF56
:1007D000B61A754640EA5C005B084FEA3202B6EB97
:1007E000020E75EB030E22BFB61A754640EA9C0056
:1007F0005B084FEA3202B6EB020E75EB030E22BF26
:10080000B61A754640EADC0055EA060E18D04FEAE3
:10081000051545EA16754FEA06164FEAC30343EA83
:1008200052734FEAC2025FEA1C1CC0D111F4801F50
:100830000BD141EA00014FF000004FF0004CB6E749
:1008400011F4801F04BF01430020B4F1FD0C88BFE8
:10085000BCF5E06F3FF6AFAEB5EB030C04BFB6EBF3
:10086000020C5FEA500C50F1000041EB045170BDE6
:100870000EF0004E4EEA113114EB5C04C2BFD4EB13
:100880000C0541EA045170BD41F480114FF0000E97
:10089000013C90E645EA060E8DE60CEA135594EA13
:1008A0000C0F08BF95EA0C0F3FF43BAF94EA0C0F16
:1008B0000AD150EA01347FF434AF95EA0C0F7FF48B
:1008C00025AF104619462CE795EA0C0F06D152EADF
:1008D00003353FF4FDAE1046194622E750EA4106C3
:1008E00018BF52EA43067FF4C5AE50EA41047FF4D4
:1008F0000DAF52EA43057FF4EBAE12E74FF0FF3C39
:1009000006E000BF4FF0010C02E000BF4FF0010C09
:100910004DF804CD4FEA410C7FEA6C5C4FEA430C82
:1009200018BF7FEA6C5C1BD001B050EA410C0CBFD1
:1009300052EA430C91EA030F02BF90EA020F002033
:10094000704710F1000F91EA030F58BF994208BF9A
:1009500090422CBFD8176FEAE37040F00100704757
:100960004FEA410C7FEA6C5C02D150EA013C07D1AE
:100970004FEA430C7FEA6C5CD6D152EA033CD3D0F9
:100980005DF8040B704700BF8446104662468C46F3
:100990001946634600E000BF01B5FFF7B7FF002826
:1009A00048BF10F1000F01BD4DF808EDFFF7F4FF4F
:1009B0000CBF012000205DF808FB00BF4DF808EDDA
:1009C000FFF7EAFF34BF012000205DF808FB00BFFD
:1009D0004DF808EDFFF7E0FF94BF012000205DF81F
:1009E00008FB00BF4DF808EDFFF7CEFF94BF0120D4
:1009F00000205DF808FB00BF4DF808EDFFF7C4FFCD
:100A000034BF012000205DF808FB00BF4FEA410C15
:100A10007FEA6C5C02D150EA013C0AD14FEA430CF8
:100A20007FEA6C5C02D152EA033C02D14FF0000035
:100A300070474FF0010070474FEA410212F5001273
:100A400015D211D56FF47873B3EB625212D94FEA15
:100A5000C12343F0004343EA505311F0004F23FAFF
:100A600002F018BF404270474FF00000704750EA54
:100A7000013005D111F0004008BF6FF00040704711
:100A80004FF00000704700BF4FEA4102B2F1E0436F
:100A900024BFB3F5001CDCF1FE5C0DD901F0004C65
:100AA0004FEAC0024CEA5070B2F1004F40EB8300B5
:100AB00008BF20F00100704711F0804F21D113F1E1
:100AC0003872BCBF01F00040704741F480114FEA1A
:100AD0005252C2F11802C2F1200C10FA0CF320FAA3
:100AE00002F018BF40F001004FEAC1234FEAD323C0
:100AF00003FA0CFC40EA0C0023FA02F34FEA43032A
:100B0000CCE77FEA625307D150EA01331EBF4FF0B2
:100B1000FE4040F44000704701F0004040F0FE40CD
:100B200040F40000704700BF4FEA4002B2F1FE4FB0
:100B30000FD34FF09E03B3EB12620DD94FEA00239F
:100B400043F0004310F0004F23FA02F018BF404278
:100B500070474FF00000704712F1610F01D142025F
:100B600005D110F0004008BF6FF0004070474FF013
:100B700000007047B0B58AB000AFF860B9607A6025
:100B80003B6097F8443087F82630B7F84030BB8494
:100B9000FB6B3B623B8FBB833B68BB617B687B61CC
:100BA000BB683B6107F11003184600F00EF8FB68C4
:100BB0001D4607F110040FCC0FC594E8030085E82B
:100BC0000300F8682837BD46B0BD80B582B000AFDD
:100BD00078607B689B7D002B0CD13321786800F016
:100BE0007BF83221786800F077F82821786800F0E7
:100BF00073F803E03821786800F06EF80121786816
:100C000000F06AF80C21786800F066F80621786830
:100C100000F062F800BF0837BD4680BD80B586B0E1
:100C200000AF7860396007F10C033A68064918464E
:100C300003F0D4F807F10C031946786800F006F8C1
:100C400000BF1837BD4680BD6060000890B585B014
:100C500000AF786039600023FB730AE0FB7B3A68E1
:100C600013441B781946786800F064F8FB7B013365
:100C7000FB73FC7B3868FFF76BFA03469C42EDD3AD
:100C800000BF00BF1437BD4690BD000080B582B0E4
:100C900000AF78600B46FB701346BB70FB78074AC9
:100CA000D25CBB781344DBB2803BDBB21946786878
:100CB00000F012F800BF0837BD4680BDD8600008BC
:100CC00080B582B000AF78600121786800F004F848
:100CD00000BF0837BD4680BD80B582B000AF7860E8
:100CE0000B46FB707B6898687B689B8900221946DD
:100CF00001F0BEFB7B689B7D002B11D1FB781B09AB
:100D0000DBB204221946786800F042F8FB7803F061
:100D10000F03DBB204221946786800F039F805E0C9
:100D2000FB7808221946786800F032F800BF0837CF
:100D3000BD4680BD80B582B000AF78600B46FB70C9
:100D40007B6898687B689B890122194601F090FBBB
:100D50007B689B7D002B11D1FB781B09DBB2042241
:100D60001946786800F014F8FB7803F00F03DBB243
:100D700004221946786800F00BF805E0FB78082299
:100D80001946786800F004F800BF0837BD4680BDFA
:100D900080B584B000AF78600B46FB701346BB7023
:100DA0000023FB7319E07B681A68FB7B9B001344EC
:100DB00018687B685A68FB7B5B0013441988FA78D3
:100DC000FB7B42FA03F3DBB203F00103DBB21A460A
:100DD00001F04EFBFB7B0133FB73FA7BBB789A423D
:100DE000E1D37B6818697B689B8A0122194601F070
:100DF0003FFB012000F08CFC7B6818697B689B8AB4
:100E00000022194601F034FB00BF1037BD4680BDFB
:100E100080B586B000AF7860396007F10C003B68A0
:100E2000064A0C2102F0A6FF07F10C031946786868
:100E3000FFF70CFF00BF1837BD4680BD606000089B
:100E4000B0B5A0B004AF00F001FC00F0CFF800F0A6
:100E500085F900F01BF900F057F95A4B07F15804D7
:100E60000FCB84E80F00584A07F1500392E80300C3
:100E700083E80300384607F1500207F158010023C8
:100E8000039320230293514B0193102300934F4B64
:100E9000FFF770FE07F138043D460FCD0FC495E80B
:100EA000030084E8030007F13803052200211846F7
:100EB000FFF7ECFE07F1380345491846FFF7C6FE79
:100EC00007F13803002201211846FFF7DFFE07F182
:100ED000380340491846FFF7B9FE07F138030822E6
:100EE00002211846FFF7D2FE07F138033A491846A7
:100EF000FFF7ACFE07F13803002203211846FFF785
:100F0000C5FE07F1380335491846FFF79FFE012358
:100F1000FB6613E007F13803062201211846FFF7AC
:100F2000B5FE07F13803F96E1846FFF777FE4FF468
:100F30007A7000F0EDFBFB6E0133FB66FB6E052B58
:100F4000E8DD07F138031846FFF7BAFE00F050F964
:100F5000B86607F13803002201211846FFF796FE14
:100F600007F138031E491846FFF770FE07F13803F2
:100F70000D2201211846FFF789FEB86EFFF7D4FD58
:100F8000024607F1380311461846FFF741FFB86ED5
:100F9000FFF74AFA02460B4607F11800114902F022
:100FA0001DFF07F118031846FFF7D2F803469AB25F
:100FB00007F118014FF0FF330B4802F03DF800BF76
:100FC000C4E700BFC0600008D06000080010014006
:100FD000646000086C6000087C60000884600008A1
:100FE00098600008A86000082002002080B594B036
:100FF00000AF07F1280328220021184602F051FF14
:1010000007F1140300221A605A609A60DA601A61CC
:101010003B1D00221A605A609A60DA600223BB62AC
:101020000123BB631023FB6300237B6407F12803C8
:10103000184601F035FA0346002B01D000F02EF9D6
:101040000F237B610023BB610023FB6100233B6214
:1010500000237B6207F114030021184601F0A2FC73
:101060000346002B01D000F019F902237B60002316
:10107000FB603B1D184601F023FE0346002B01D008
:1010800000F00CF900BF5037BD4680BD80B584B07C
:1010900000AF3B1D00221A605A609A60184B194A33
:1010A0001A60174B00229A60154B01221A73144BD9
:1010B00000221A75124B4FF46022DA61104B0022A5
:1010C0005A600F4B01221A610D4800F045FB0346A0
:1010D000002B01D000F0E2F801237B600123BB600C
:1010E0000023FB603B1D1946054800F0CDFD03467B
:1010F000002B01D000F0D2F800BF1037BD4680BDF4
:10110000F00100200024014080B500AF114B124ACD
:101110001A60104B4FF416525A600E4B00229A6020
:101120000C4B0022DA600B4B00221A61094B0C2297
:101130005A61084B00229A61064B0022DA61054889
:1011400001F02AFF0346002B01D000F0A7F800BFF2
:1011500080BD00BF200200200044004080B588B060
:1011600000AF07F1100300221A605A609A60DA603B
:101170001D4B9B691C4A43F0100393611A4B9B69FA
:1011800003F01003FB60FB68174B9B69164A43F0A2
:1011900020039361144B9B6903F02003BB60BB6881
:1011A000114B9B69104A43F0040393610E4B9B69FA
:1011B00003F004037B607B6800223F210B4801F0B1
:1011C00057F93F233B6101237B610023BB6102236D
:1011D000FB6107F110031946044800F0CDFF00BF82
:1011E0002037BD4680BD00BF001002400010014006
:1011F00080B582B000AF234800F086FB4FF0FF318E
:10120000204800F02FFC1F4800F032FD03461E4A24
:1012100013601D4B1B681846FFF7E4F84FF00002FF
:101220001A4BFFF759F902460B46104619464FF084
:101230000002174BFFF77AFA02460B461046194692
:10124000FFF722FC03467B607868FFF7EDF84FF06C
:101250000002104BFEF788FF02460B461046194667
:101260004FF000020C4BFFF737F902460B461046D1
:101270001946FFF709FC03463B603B6818460837F0
:10128000BD4680BDF001002068020020000014402F
:101290000000B0400000E03F0000594080B400AFC3
:1012A00072B600BF00BFFDE780B485B000AF154B3C
:1012B0009B69144A43F001039361124B9B6903F04D
:1012C0000103BB60BB680F4BDB690E4A43F08053E0
:1012D000D3610C4BDB6903F080537B607B680A4B66
:1012E0005B68FB60FB6823F0E063FB60FB6843F036
:1012F0008063FB60044AFB68536000BF1437BD463F
:1013000080BC7047001002400000014080B588B0EA
:1013100000AF786007F1100300221A605A609A60EB
:10132000DA607B681B68144A934221D1134B9B6996
:10133000124A43F400739361104B9B6903F40073EA
:10134000FB60FB680D4B9B690C4A43F004039361FF
:101350000A4B9B6903F00403BB60BB6802233B613B
:1013600003237B6107F110031946054800F004FFD1
:1013700000BF2037BD4680BD002401400010024060
:101380000008014080B588B000AF786007F1100315
:1013900000221A605A609A60DA607B681B681B4AF8
:1013A00093422FD11A4BDB69194A43F40033D361BE
:1013B000174BDB6903F40033FB60FB68144B9B693C
:1013C000134A43F004039361114B9B6903F0040338
:1013D000BB60BB6804233B6102237B610323FB6189
:1013E00007F1100319460B4800F0C6FE08233B61C5
:1013F00000237B610023BB6107F1100319460548F8
:1014000000F0BAFE00BF2037BD4680BD004400405A
:10141000001002400008014080B400AF00BFFDE7AB
:1014200080B400AF00BFFDE780B400AF00BFFDE7B0
:1014300080B400AF00BFFDE780B400AF00BFFDE7A0
:1014400080B400AF00BFBD4680BC704780B400AF21
:1014500000BFBD4680BC704780B400AF00BFBD4632
:1014600080BC704780B500AF00F036F900BF80BD8A
:1014700080B400AF01231846BD4680BC704780B5DC
:1014800082B000AF7860396002F05EFD034616223C
:101490001A604FF0FF3318460837BD4680BD80B54F
:1014A00082B000AF78604FF0FF317868FFF7E7FF58
:1014B00000BFFDE780B586B000AFF860B9607A6024
:1014C00000237B610AE0AFF300800146BB685A1C31
:1014D000BA60CAB21A707B6901337B617A697B6832
:1014E0009A42F0DB7B6818461837BD4680BD80B550
:1014F00086B000AFF860B9607A6000237B6109E0D4
:10150000BB685A1CBA601B781846AFF300807B6931
:1015100001337B617A697B689A42F1DB7B6818460C
:101520001837BD4680BD80B483B000AF78604FF0FF
:10153000FF3318460C37BD4680BC704780B483B07B
:1015400000AF786039603B684FF400525A60002366
:1015500018460C37BD4680BC704780B483B000AFDE
:101560007860012318460C37BD4680BC704780B4B4
:1015700085B000AFF860B9607A6000231846143770
:10158000BD4680BC7047000080B586B000AF786073
:10159000144A154BD31A7B617B693B61134B1B6863
:1015A000002B02D1114B124A1A60104B1A687B684B
:1015B00013443A699A4207D202F0C6FC03460C2251
:1015C0001A604FF0FF3309E0084B1B68FB60074BC4
:1015D0001A687B681344054A1360FB68184618377D
:1015E000BD4680BD00280020000400006C020020E1
:1015F000C003002080B400AF00BFBD4680BC704770
:10160000FFF7F8FF0B480C490C4A002302E0D458BE
:10161000C4500433C4188C42F9D3094A094C00233E
:1016200001E013600432A242FBD302F093FCFFF707
:1016300007FC704700000020D401002098640008D7
:10164000D4010020C0030020FEE7000080B500AFF9
:10165000084B1B68074A43F010031360032000F097
:1016600057FD0F2000F008F8FFF71EFE0023184674
:1016700080BD00BF0020024080B582B000AF78601E
:10168000124B1A68124B1B7819464FF47A73B3FB4E
:10169000F1F3B2FBF3F3184600F061FD0346002BB3
:1016A00001D001230EE07B680F2B0AD80022796855
:1016B0004FF0FF3000F037FD064A7B6813600023CF
:1016C00000E0012318460837BD4680BD0000002019
:1016D000080000200400002080B400AF054B1B78F8
:1016E0001A46054B1B681344034A136000BFBD46EE
:1016F00080BC7047080000207002002080B400AF5A
:10170000024B1B681846BD4680BC70477002002023
:1017100080B584B000AF7860FFF7F0FFB8607B68F9
:10172000FB60FB68B3F1FF3F05D00A4B1B781A46FC
:10173000FB681344FB6000BFFFF7E0FF0246BB6895
:10174000D31AFA689A42F7D800BF00BF1037BD46D7
:1017500080BD00BF0800002080B586B000AF786073
:101760000023FB7500233B610023BB600023FB606B
:101770007B68002B01D10123BEE07B689B68002BB6
:101780007B689B6A002B09D17B680022DA627B6848
:10179000002283F824207868FFF7B8FD786800F00D
:1017A000C5FB0346FB757B689B6A03F01003002BA7
:1017B00040F09980FB7D002B40F095807B689B6A10
:1017C00023F4885323F0020343F002027B689A62F9
:1017D0007B685A687B68DB691A437B681B7B5B000C
:1017E0001343BA681343BB607B689B68B3F5807F83
:1017F00003D07B689B68012B02D14FF4807300E01B
:1018000000233A6913433B617B681B7D012B19D18F
:101810007B681B7B002B09D17B689B69013B5A03CA
:101820003B69134343F400633B610BE07B689B6AB5
:1018300043F020027B689A627B68DB6A43F0010216
:101840007B68DA627B681B685B6823F469417B68AC
:101850001B683A690A435A607B681B689A68284B80
:1018600013407A681268B9680B4393607B689B6881
:10187000B3F5807F03D07B689B68012B04D17B6824
:101880001B69013B1B05FB607B681B68DB6A23F45B
:1018900070017B681B68FA680A43DA627B681B6820
:1018A0009A68184B1340BA689A420BD17B680022A1
:1018B000DA627B689B6A23F0030343F001027B68D2
:1018C0009A6218E07B689B6A23F0120343F01002CF
:1018D0007B689A627B68DB6A43F001027B68DA62AC
:1018E0000123FB7507E07B689B6A43F010027B686D
:1018F0009A620123FB75FB7D18461837BD4680BDF3
:10190000FDF7E1FFFE0E1FFF80B584B000AF7860E9
:101910000023FB737B6893F82430012B01D1022351
:1019200098E07B68012283F82420786800F0A4FA0C
:101930000346FB73FB7B002B40F087807B689B6A30
:1019400023F4407323F0010343F480727B689A62AE
:101950007B681B68414A934205D1414B5B6803F4A5
:101960007023002B15D17B689B6A23F480127B685F
:101970009A627B681B685B6803F48063002B26D047
:101980007B689B6A23F4405343F480527B689A62DD
:101990001DE07B689B6A43F480127B689A627B68D7
:1019A0001B682F4A934204D07B681B682B4A9342E2
:1019B0000DD12B4B5B6803F48063002B07D07B6851
:1019C0009B6A23F4405343F480527B689A627B689D
:1019D0009B6A03F48053002B06D07B68DB6A23F0FC
:1019E00006027B68DA6202E07B680022DA627B68CA
:1019F000002283F824207B681B686FF002021A60C3
:101A00007B681B689B6803F46023B3F5602F13D1D8
:101A10007B681B68114A934205D1114B5B6803F444
:101A20007023002B08D17B681B689A687B681B6851
:101A300042F4A0029A600CE07B681B689A687B689D
:101A40001B6842F480129A6003E07B68002283F8EE
:101A50002420FB7B18461037BD4680BD002801407E
:101A60000024014090B587B000AF78603960002352
:101A70007B610023FB6000233B61FFF73FFE786141
:101A80007B681B689B6803F48073002B0BD07B681A
:101A90009B6A43F020027B689A627B68002283F88D
:101AA00024200123D3E07B681B685B6803F4807308
:101AB000002B31D17B681B68DB6A03F47003002BB9
:101AC0002AD121E03B68B3F1FF3F1DD03B68002BDA
:101AD00007D0FFF713FE02467B69D31A3A689A4291
:101AE00012D27B681B681B6803F00203002B0BD12A
:101AF0007B689B6A43F004027B689A627B680022E1
:101B000083F824200323A2E07B681B681B6803F092
:101B10000203002BD6D070E04F4B1C68022001F06E
:101B200085F90346B4FBF3F27B681B6819694B4BDC
:101B30000B40002B18D17B681B68D968484B0B40C1
:101B4000002B11D17B681B681969464B0B40002B99
:101B500008D17B681B68D968434B0B40002B01D12F
:101B6000142320E029231EE07B681B6819693D4B84
:101B70000B40002B06D17B681B68D9683A4B0B40A1
:101B8000002B0DD07B681B681969384B0B40002B6C
:101B900008D17B681B68D968344B0B40002B01D1FE
:101BA000542300E0FC2302FB03F33B6121E03B688C
:101BB000B3F1FF3F1AD03B68002B07D0FFF79EFD23
:101BC00002467B69D31A3A689A420FD2FB683A6997
:101BD0009A420BD97B689B6A43F004027B689A6245
:101BE0007B68002283F82420032330E0FB68013364
:101BF000FB60FB683A699A42D9D87B681B686FF032
:101C000012021A607B689B6A43F400727B689A62D6
:101C10007B681B689B6803F46023B3F5602F15D1C4
:101C20007B681B7B002B11D17B689B6A23F480723D
:101C30007B689A627B689B6A03F48053002B05D112
:101C40007B689B6A43F001027B689A620023184616
:101C50001C37BD4690BD00BF0000002024499224DF
:101C60002449920092244912922449004992240066
:101C700080B483B000AF78607B681B68DB6C18466B
:101C80000C37BD4680BC704780B485B000AF78602B
:101C900039600023FB730023BB607B6893F824301A
:101CA000012B01D10223DCE07B68012283F8242090
:101CB0003B685B68062B1CD87B681B68596B3B68CC
:101CC0005A6813469B001344053B1F2202FA03F394
:101CD000DB4319403B6818683B685A6813469B0011
:101CE0001344053B00FA03F27B681B680A435A63FE
:101CF0003CE03B685B680C2B1CD87B681B68196B4D
:101D00003B685A6813469B001344233B1F2202FA88
:101D100003F3DB4319403B6818683B685A68134675
:101D20009B001344233B00FA03F27B681B680A43C1
:101D30001A631BE07B681B68D96A3B685A681346C4
:101D40009B001344413B1F2202FA03F3DB4319407B
:101D50003B6818683B685A6813469B001344413B34
:101D600000FA03F27B681B680A43DA623B681B686F
:101D7000092B1CD97B681B68D9683B681A68134615
:101D80005B0013441E3B072202FA03F3DB431940B6
:101D90003B6898683B681A6813465B0013441E3B17
:101DA00000FA03F27B681B680A43DA6019E07B687B
:101DB0001B6819693B681A6813465B0013440722C5
:101DC00002FA03F3DB4319403B6898683B681A68E2
:101DD00013465B00134400FA03F27B681B680A4356
:101DE0001A613B681B68102B03D03B681B68112BE2
:101DF00032D17B681B681D4A934225D17B681B68E2
:101E00009B6803F40003002B26D17B681B689A684B
:101E10007B681B6842F400029A603B681B68102BC9
:101E20001AD1134B1B68134AA2FB03239A0C1346C7
:101E30009B0013445B00BB6002E0BB68013BBB60DE
:101E4000BB68002BF9D107E07B689B6A43F0200256
:101E50007B689A620123FB737B68002283F824204D
:101E6000FB7B18461437BD4680BC704700240140F8
:101E70000000002083DE1B4380B584B000AF786093
:101E80000023FB600023BB607B681B689B6803F03A
:101E90000103012B40D07B681B689A687B681B6834
:101EA00042F001029A601F4B1B681F4AA2FB0323EA
:101EB0009B0CBB6002E0BB68013BBB60BB68002BB6
:101EC000F9D1FFF71BFCF8601FE0FFF717FC024693
:101ED000FB68D31A022B18D97B681B689B6803F038
:101EE0000103012B11D07B689B6A43F010027B68D1
:101EF0009A627B68DB6A43F001027B68DA627B6886
:101F0000002283F82420012307E07B681B689B687C
:101F100003F00103012BD8D1002318461037BD462A
:101F200080BD00BF0000002083DE1B4380B584B06D
:101F300000AF78600023FB607B681B689B6803F040
:101F40000103012B2ED17B681B689A687B681B6894
:101F500022F001029A60FFF7D1FBF8601BE0FFF767
:101F6000CDFB0246FB68D31A022B14D97B681B6891
:101F70009B6803F00103012B0DD17B689B6A43F042
:101F800010027B689A627B68DB6A43F001027B681F
:101F9000DA62012307E07B681B689B6803F001039A
:101FA000012BDCD0002318461037BD4680BD000051
:101FB00080B485B000AF78607B6803F00703FB60F6
:101FC0000C4BDB68BB60BA684FF6FF031340BB6085
:101FD000FB681A02BB68134343F0BF6343F400334A
:101FE000BB60044ABB68D36000BF1437BD4680BCE9
:101FF000704700BF00ED00E080B400AF044BDB6829
:102000001B0A03F007031846BD4680BC704700BF9B
:1020100000ED00E080B483B000AF03463960FB718F
:1020200097F90730002B0ADB3B68DAB20C4997F9C5
:1020300007301201D2B20B4483F800230AE03B6858
:10204000DAB20849FB7903F00F03043B1201D2B264
:102050000B441A7600BF0C37BD4680BC704700BFEA
:1020600000E100E000ED00E080B489B000AFF8606E
:10207000B9607A60FB6803F00703FB61FB69C3F199
:102080000703042B28BF0423BB61FB690433062B21
:1020900002D9FB69033B00E000237B614FF0FF3274
:1020A000BB6902FA03F3DA43BB681A407B699A40C2
:1020B0004FF0FF317B6901FA03F3D9437B680B4092
:1020C000134318462437BD4680BC704780B582B0A4
:1020D00000AF78607B68013BB3F1807F01D30123BF
:1020E0000FE00A4A7B68013B53600F214FF0FF303D
:1020F000FFF790FF054B00229A60044B07221A60FD
:10210000002318460837BD4680BD00BF10E000E040
:1021100080B582B000AF78607868FFF749FF00BFF4
:102120000837BD4680BD80B586B000AF0346B960B4
:102130007A60FB7300237B61FFF75EFF78617A684A
:10214000B9687869FFF790FF024697F90F3011469A
:102150001846FFF75FFF00BF1837BD4680BD80B54A
:1021600082B000AF78607868FFF7B0FF034618468A
:102170000837BD4680BD000080B48BB000AF7860EA
:10218000396000237B6200233B6261E101227B6AAC
:1021900002FA03F3FB613B681B68FA691340BB61F9
:1021A000BA69FB699A4240F050813B685B68974A84
:1021B00093425ED0954A934275D8954A934258D03F
:1021C000934A93426FD8934A934252D0914A934292
:1021D00069D8914A93424CD08F4A934263D88F4A30
:1021E000934246D08D4A93425DD8122B2AD8122BA7
:1021F00059D801A252F823F0732200084D2200089A
:102200005F220008A1220008A7220008A7220008D8
:10221000A7220008A7220008A7220008A72200087A
:10222000A7220008A7220008A7220008A72200086A
:10223000A7220008A7220008A722000855220008AC
:1022400069220008764A934213D02CE03B68DB6891
:102250003B6229E03B68DB6804333B6224E03B6877
:10226000DB6808333B621FE03B68DB680C333B6292
:102270001AE03B689B68002B02D104233B6213E009
:102280003B689B68012B05D108233B627B68FA6998
:102290001A6109E008233B627B68FA695A6103E02E
:1022A00000233B6200E000BFBB69FF2B01D87B68C5
:1022B00001E07B6804337B61BB69FF2B02D87B6A3A
:1022C0009B0002E07B6A083B9B003B617B691A68CC
:1022D0000F213B6901FA03F3DB431A40396A3B697A
:1022E00001FA03F31A437B691A603B685B6803F0E9
:1022F0008053002B00F0A9804A4B9B69494A43F068
:1023000001039361474B9B6903F00103BB60BB680A
:10231000454A7B6A9B08023352F82330FB607B6A94
:1023200003F003039B000F2202FA03F3DB43FA6876
:102330001340FB607B683D4A93420DD07B683C4A6A
:10234000934207D07B683B4A934201D1022304E0C9
:10235000032302E0012300E000237A6A02F0030273
:1023600092009340FA681343FB602F497B6A9B08F5
:102370000233FA6841F823203B685B6803F480135A
:10238000002B06D02C4B9A682B49BB6913438B60FA
:1023900006E0294B9A68BB69DB43274913408B60F1
:1023A0003B685B6803F40013002B06D0224BDA680D
:1023B0002149BB691343CB6006E01F4BDA68BB6958
:1023C000DB431D491340CB603B685B6803F400337B
:1023D000002B06D0184B5A681749BB6913434B6052
:1023E00006E0154B5A68BB69DB43134913404B6049
:1023F0003B685B6803F48033002B1FD00E4B1A68D8
:102400000D49BB6913430B601FE000BF0000321091
:1024100000003110000022100000211000001210F6
:1024200000001110001002400000014000080140AF
:10243000000C014000100140000401400B4B1A68E1
:10244000BB69DB43094913400B607B6A01337B6244
:102450003B681A687B6A22FA03F3002B7FF496AE7E
:1024600000BF00BF2C37BD4680BC70470004014050
:1024700080B483B000AF78600B467B8013467B70DE
:102480007B78002B03D07A887B681A6103E07B8815
:102490001A047B681A6100BF0C37BD4680BC7047C8
:1024A00080B586B000AF78607B68002B01D1012336
:1024B00072E27B681B6803F00103002B00F0878049
:1024C000924B5B6803F00C03042B0CD08F4B5B68C2
:1024D00003F00C03082B12D18C4B5B6803F48033A0
:1024E000B3F5803F0BD1894B1B6803F40033002BFD
:1024F0006CD07B685B68002B68D101234CE27B6861
:102500005B68B3F5803F06D1804B1B687F4A43F47C
:10251000803313602EE07B685B68002B0CD17B4B13
:102520001B687A4A23F480331360784B1B68774A20
:1025300023F4802313601DE07B685B68B3F5A02F54
:102540000CD1724B1B68714A43F4802313606F4BAC
:102550001B686E4A43F4803313600BE06B4B1B68BF
:102560006A4A23F480331360684B1B68674A23F47C
:10257000802313607B685B68002B13D0FFF7BEF8E5
:10258000386108E0FFF7BAF802463B69D31A642BBA
:1025900001D9032300E25D4B1B6803F40033002BD9
:1025A000F0D014E0FFF7AAF8386108E0FFF7A6F8CA
:1025B00002463B69D31A642B01D90323ECE1534B48
:1025C0001B6803F40033002BF0D100E000BF7B68F0
:1025D0001B6803F00203002B63D04C4B5B6803F0D5
:1025E0000C03002B0BD0494B5B6803F00C03082B4A
:1025F0001CD1464B5B6803F48033002B16D1434B50
:102600001B6803F00203002B05D07B681B69012BBC
:1026100001D00123C0E13D4B1B6823F0F8027B6829
:102620005B69DB00394913430B603AE07B681B6947
:10263000002B20D0364B01221A60FFF75FF838617B
:1026400008E0FFF75BF802463B69D31A022B01D979
:102650000323A1E12D4B1B6803F00203002BF0D0F4
:102660002A4B1B6823F0F8027B685B69DB00274973
:1026700013430B6015E0264B00221A60FFF73EF86B
:10268000386108E0FFF73AF802463B69D31A022B9B
:1026900001D9032380E11D4B1B6803F00203002BCB
:1026A000F0D17B681B6803F00803002B3AD07B68ED
:1026B0009B69002B19D0174B01221A60FFF71EF8F7
:1026C000386108E0FFF71AF802463B69D31A022B7B
:1026D00001D9032360E10D4B5B6A03F00203002B79
:1026E000F0D0012000F0CEFA1CE00A4B00221A6064
:1026F000FFF704F838610FE0FFF700F802463B6986
:10270000D31A022B08D9032346E100BF0010024070
:102710000000424280044242924B5B6A03F0020393
:10272000002BE9D17B681B6803F00403002B00F049
:10273000A6800023FB758B4BDB6903F08053002BD5
:102740000DD1884BDB69874A43F08053D361854BB9
:10275000DB6903F08053BB60BB680123FB75824BD0
:102760001B6803F48073002B18D17F4B1B687E4AD3
:1027700043F480731360FEF7C1FF386108E0FEF791
:10278000BDFF02463B69D31A642B01D9032303E141
:10279000754B1B6803F48073002BF0D07B68DB68FB
:1027A000012B06D16F4B1B6A6E4A43F00103136283
:1027B0002DE07B68DB68002B0CD16A4B1B6A694AF1
:1027C00023F001031362674B1B6A664A23F004037C
:1027D00013621CE07B68DB68052B0CD1614B1B6A24
:1027E000604A43F0040313625E4B1B6A5D4A43F088
:1027F000010313620BE05B4B1B6A5A4A23F001038F
:102800001362584B1B6A574A23F0040313627B6818
:10281000DB68002B15D0FEF771FF38610AE0FEF788
:102820006DFF02463B69D31A41F28832934201D9C7
:102830000323B1E04B4B1B6A03F00203002BEED0E5
:1028400014E0FEF75BFF38610AE0FEF757FF02462F
:102850003B69D31A41F28832934201D903239BE0AA
:10286000404B1B6A03F00203002BEED1FB7D012BD2
:1028700005D13C4BDB693B4A23F08053D3617B6835
:10288000DB69002B00F08780364B5B6803F00C039C
:10289000082B61D07B68DB69022B46D1334B0022C9
:1028A0001A60FEF72BFF386108E0FEF727FF0246AB
:1028B0003B69D31A022B01D903236DE0294B1B6816
:1028C00003F00073002BF0D17B681B6AB3F5803FE7
:1028D00008D1244B5B6823F400327B689B68214954
:1028E00013434B601F4B5B6823F474127B68196AB7
:1028F0007B685B6A0B431B4913434B601B4B0122F4
:102900001A60FEF7FBFE386108E0FEF7F7FE0246AC
:102910003B69D31A022B01D903233DE0114B1B68FD
:1029200003F00073002BF0D035E0104B00221A604A
:10293000FEF7E4FE386108E0FEF7E0FE02463B6980
:10294000D31A022B01D9032326E0064B1B6803F0A0
:102950000073002BF0D11EE07B68DB69012B07D1EF
:10296000012319E000100240007000406000424264
:102970000B4B5B68FB60FB6803F480327B681B6A6F
:102980009A4206D1FB6803F470127B685B6A9A4234
:1029900001D0012300E0002318461837BD4680BD52
:1029A0000010024080B584B000AF786039607B6869
:1029B000002B01D10123D0E06A4B1B6803F0070311
:1029C0003A689A4210D9674B1B6823F007026549A1
:1029D0003B6813430B60634B1B6803F007033A68C3
:1029E0009A4201D00123B8E07B681B6803F0020320
:1029F000002B20D07B681B6803F00403002B05D05C
:102A0000594B5B68584A43F4E06353607B681B682A
:102A100003F00803002B05D0534B5B68524A43F484
:102A200060535360504B5B6823F0F0027B689B68F7
:102A30004D4913434B607B681B6803F00103002B77
:102A400040D07B685B68012B07D1474B1B6803F4C0
:102A50000033002B15D101237FE07B685B68022BDC
:102A600007D1414B1B6803F00073002B09D10123F0
:102A700073E03D4B1B6803F00203002B01D10123DF
:102A80006BE0394B5B6823F003027B685B68364977
:102A900013434B60FEF732FEF8600AE0FEF72EFEAD
:102AA0000246FB68D31A41F28832934201D90323CC
:102AB00053E02D4B5B6803F00C027B685B689B0066
:102AC0009A42EBD1274B1B6803F007033A689A42FE
:102AD00010D2244B1B6823F0070222493B681343A2
:102AE0000B60204B1B6803F007033A689A4201D041
:102AF000012332E07B681B6803F00403002B08D03D
:102B0000194B5B6823F4E0627B68DB68164913436A
:102B10004B607B681B6803F00803002B09D0124B45
:102B20005B6823F460527B681B69DB000E4913432A
:102B30004B6000F021F802460B4B5B681B0903F069
:102B40000F030A49CB5C22FA03F3094A1360094BCD
:102B50001B681846FEF790FD002318461037BD4647
:102B600080BD00BF0020024000100240DC60000871
:102B7000000000200400002080B487B000AF0023D4
:102B8000FB600023BB6000237B6100237B6000238C
:102B90003B611E4B5B68FB60FB6803F00C03042B7E
:102BA00002D0082B03D027E0194B3B6127E0FB68DC
:102BB0009B0C03F00F03174AD35C7B60FB6803F4A4
:102BC0008033002B10D0114B5B685B0C03F00103CA
:102BD000114AD35CBB607B680D4A03FB02F2BB6801
:102BE000B2FBF3F37B6104E07B680C4A02FB03F366
:102BF0007B617B693B6102E0054B3B6100BF3B6948
:102C000018461C37BD4680BC704700BF001002400C
:102C100000127A00F46000080461000800093D0019
:102C200080B400AF024B1B681846BD4680BC70479D
:102C30000000002080B500AFFFF7F2FF0246054B11
:102C40005B681B0A03F007030349CB5C22FA03F31A
:102C5000184680BD00100240EC60000880B500AF4F
:102C6000FFF7DEFF0246054B5B68DB0A03F0070354
:102C70000349CB5C22FA03F3184680BD00100240E2
:102C8000EC60000880B485B000AF78600A4B1B6828
:102C90000A4AA2FB03235B0A7A6802FB03F3FB6088
:102CA00000BFFB685A1EFA60002BF9D100BF00BFBD
:102CB0001437BD4680BC704700000020D34D621021
:102CC00080B586B000AF786000233B610023FB60D5
:102CD0007B681B6803F00103002B7DD00023FB758C
:102CE0004F4BDB6903F08053002B0DD14C4BDB695C
:102CF0004B4A43F08053D361494BDB6903F0805367
:102D0000BB60BB680123FB75464B1B6803F48073F3
:102D1000002B18D1434B1B68424A43F48073136065
:102D2000FEF7ECFC386108E0FEF7E8FC02463B6980
:102D3000D31A642B01D903236DE03A4B1B6803F4CB
:102D40008073002BF0D0364B1B6A03F44073FB609A
:102D5000FB68002B2ED07B685B6803F44073FA6835
:102D60009A4227D02E4B1B6A23F44073FB602E4BF4
:102D700001221A602C4B00221A60294AFB68136258
:102D8000FB6803F00103002B14D0FEF7B7FC386199
:102D90000AE0FEF7B3FC02463B69D31A41F28832DF
:102DA000934201D9032336E01D4B1B6A03F0020353
:102DB000002BEED01A4B1B6A23F440727B685B68D1
:102DC000174913430B62FB7D012B05D1144BDB69C3
:102DD000134A23F08053D3617B681B6803F002031E
:102DE000002B08D00E4B5B6823F440427B689B6845
:102DF0000B4913434B607B681B6803F01003002BE7
:102E000008D0074B5B6823F480027B68DB680449C9
:102E100013434B60002318461837BD4680BD00BFE2
:102E200000100240007000404004424280B588B06B
:102E300000AF786000237B610023FB6100233B61CE
:102E40000023FB600023BB617B68102B0AD07B68EA
:102E5000102B00F28A807B68012B45D07B68022B07
:102E600075D082E0464B5B68FB60454B1B6803F006
:102E70008073002B7BD0FB689B0C03F00F03414A4F
:102E8000D35C3B61FB6803F48033002B15D03C4BD3
:102E90005B685B0C03F001033B4AD35C7B61FB681E
:102EA00003F48033002B0DD0384A7B69B2FBF3F278
:102EB0003B6902FB03F3FB6104E03B69344A02FB1C
:102EC00003F3FB612E4B5B6803F48003B3F5800FC3
:102ED00002D1FB69BB614AE0FB695B002D4AA2FBA2
:102EE00003235B08BB6142E0254B1B6AFB60FB6868
:102EF00003F44073B3F5807F08D1FB6803F002034D
:102F0000002B03D04FF40043BB611FE0FB6803F4C8
:102F10004073B3F5007F09D1194B5B6A03F00203DC
:102F2000002B03D049F64043BB610FE0FB6803F47C
:102F30004073B3F5407F1CD1114B1B6803F4003381
:102F4000002B16D04FF22443BB6112E011E0FFF7D3
:102F500085FE02460A4B5B689B0B03F003030133BB
:102F60005B00B2FBF3F3BB6104E000BF02E000BF13
:102F700000E000BFBB6918462037BD4680BD00BFDA
:102F800000100240086100081861000800127A0071
:102F900000093D00ABAAAAAA80B582B000AF786054
:102FA0007B68002B01D1012342E07B6893F841301C
:102FB000DBB2002B06D17B68002283F840207868C2
:102FC000FEF7E0F97B68242283F841207B681B68C8
:102FD000DA687B681B6822F40052DA60786800F0D7
:102FE0001DF97B681B681A697B681B6822F4904294
:102FF0001A617B681B685A697B681B6822F02A0289
:103000005A617B681B68DA687B681B6842F400526F
:10301000DA607B6800225A647B68202283F84120B2
:103020007B68202283F842207B6800225A630023B9
:1030300018460837BD4680BD80B58AB002AFF8603B
:10304000B9603B601346FB8000237B61FB6893F80B
:103050004130DBB2202B6DD1BB68002B02D0FB8846
:10306000002B01D1012366E0FB6800225A64FB6853
:10307000212283F84120FEF741FB7861FB68FA8842
:103080009A84FB68FA88DA84FB689B68B3F5805FF2
:1030900008D1FB681B69002B04D10023FB61BB68CE
:1030A000BB6103E0BB68FB610023BB612AE03B68B6
:1030B00000937B6900228021F86800F040F8034605
:1030C000002B01D0032336E0FB69002B0BD1BB6939
:1030D0001B881A46FB681B68C2F308025A60BB696A
:1030E0000233BB6107E0FB691A78FB681B685A6012
:1030F000FB690133FB61FB68DB8C9BB2013B9AB23D
:10310000FB68DA84FB68DB8C9BB2002BCFD13B6879
:1031100000937B6900224021F86800F010F8034614
:10312000002B01D0032306E0FB68202283F8412016
:10313000002300E0022318462037BD4680BD80B53D
:1031400090B000AFF860B9603B601346FB7150E08F
:10315000BB6CB3F1FF3F4CD0BB6C002B07D0FEF72C
:10316000CDFA02463B68D31ABA6C9A4241D2FB6848
:103170001B680C33BB62BB6A53E8003F7B627B6A0F
:1031800023F4D073FB63FB681B680C33FA6B7A6320
:103190003B63396B7A6B41E80023FB62FB6A002BCF
:1031A000E5D1FB681B6814337B617B6953E8003F02
:1031B0003B613B6923F00103BB63FB681B6814336D
:1031C000BA6B3A62FB61F9693A6A41E80023BB6174
:1031D000BB69002BE5D1FB68202283F84120FB6806
:1031E000202283F84220FB68002283F8402003233A
:1031F0000FE0FB681B681A68BB681340BA689A4204
:103200000CBF01230023DBB21A46FB799A429FD000
:10321000002318464037BD4680BD000080B584B00D
:1032200000AF78607B681B681B6923F440517B68A2
:10323000DA687B681B680A431A617B689A687B6856
:103240001B691A437B685B691343BB607B681B681F
:10325000DB6823F4B05323F00C037A681268B96872
:103260000B43D3607B681B685B6923F440717B6808
:103270009A697B681B680A435A617B681B682C4A01
:10328000934203D1FFF7EAFCF86002E0FFF7D2FCBB
:10329000F860FA6813469B0013449A001A447B684E
:1032A0005B689B00B2FBF3F3224AA2FB03235B099A
:1032B0001901FA6813469B0013449A001A447B686C
:1032C0005B689B00B2FBF3F21A4BA3FB02035B09A2
:1032D000642000FB03F3D31A1B013233154AA2FB0F
:1032E00003235B0903F0F0031944FA6813469B00BB
:1032F00013449A001A447B685B689B00B2FBF3F2AC
:103300000C4BA3FB02035B09642000FB03F3D31AFD
:103310001B013233074AA2FB03235B0903F00F02B0
:103320007B681B680A449A6000BF1037BD4680BDA9
:10333000003801401F85EB51002B2DE9F0471D4659
:10334000BBBF03F100431D4600232D2388B0144664
:10335000B8BF1446129A109E1370149BDDF84CA04F
:1033600023F02008B8F1460F05D0B8F1450F00D181
:103370000136022300E0032307AA049206AACDE93E
:1033800002A2CDE9003622462B4600F0A1FEB8F19C
:10339000470F074619D1119BDB070ED500EB060935
:1033A0000022002320462946FDF7FEFA08B1CDF899
:1033B0001C903022079B4B451ED33846079B159A1D
:1033C000DB1B136008B0BDE8F087B8F1460F00EBD7
:1033D0000609E5D10378302B0AD1002200232046CC
:1033E0002946FDF7E1FA18B9C6F10106CAF80060EE
:1033F000DAF800309944D3E7591C07911A70D9E7DD
:10340000F7B50029B6BF2D232B23494209290270A5
:10341000437029DD0DF107031D460A27B1FBF7F6BE
:103420001A4607FB1614303402F8014C0C46632C84
:10343000314603F1FF33F1DC3031941E03F8011CF7
:103440002346411CAB420AD30DF109039B1AAC423F
:1034500088BF002302330344181A03B0F0BD13F8E9
:10346000016B01F8016FEDE7302330318370C170DB
:10347000031DF1E72DE9F04F91B00C46DDF86880AF
:1034800016461F46054600F015FD036818460893CA
:10349000FCF75EFE00230E93D8F800300990073346
:1034A00023F0070303F1080294F818A0D4F800B041
:1034B000C8F80020D3E9008929F000430B93CDF828
:1034C00028804FF0FF32DDE90A01C4E912899C4BE4
:1034D000FDF79CFA70BBDDE90A014FF0FF32984B13
:1034E000FDF776FA30BB0022002340464946FDF73F
:1034F00065FA10B12D2384F84330924A924BBAF109
:10350000470F94BF9046984603234FF0000923616C
:103510002BF00403236033462146284600970FAA68
:1035200000F0D4F9013040F090804FF0FF3011B03E
:10353000BDE8F08F42464B4640464946FDF766FAE5
:1035400048B14B46002BB8BF2D23804AB8BF84F842
:1035500043307F4BD3E763680AF0DF015A1C3FD149
:103560000623636000224BF48063236006920EAA58
:10357000CDE904A20DAA03920DF13302CDE9013287
:1035800063684246009328464B460A91FFF7D4FEF3
:103590000A99804647290D9928D1C81C02DB636827
:1035A000994240DDAAF1020A5FFA8AFA52460139CD
:1035B00004F150000D91FFF723FF0E9A8146131876
:1035C000012A236102DC2268D20701D5013323617D
:1035D0009DF83330002B9ED02D2384F843309AE79A
:1035E0004729BFD1002BBDD10123BAE7BAF1650F3E
:1035F000DCD9BAF1660F18D1002963680BDD2161AF
:1036000013B92268D00702D501330B4423614FF070
:103610000009A165DCE713B92268D20701D502339E
:10362000F4E70123F2E74FF0670A0E9B994205DBAE
:1036300023682161D807EAD54B1CE7E70029CCBFF6
:103640000122C1F102021344E0E723685A0507D4BE
:103650002369424631462846B84701302BD164E7FA
:10366000BAF1650F40F2DC80D4E912010022002398
:10367000FDF79AF9002833D0012331462846354A10
:10368000B84701303FF451AFDDE90D38434502DB67
:103690002368D8070FD5DDE9082331462846B84707
:1036A00001303FF442AF4FF0000908F1FF3804F158
:1036B0001A0AC84509DC23689B0700F10281E0680B
:1036C0000F9B9842B8BF184631E701235246314656
:1036D0002846B84701303FF428AF09F10109E8E76F
:1036E0000D9B002B38DC012331462846194AB84788
:1036F00001303FF41AAFDDE90D3959EA030302D175
:103700002368D907D7D5DDE9082331462846B847CD
:1037100001303FF40AAF4FF0000A04F11A0B0D9B81
:103720005B42534501DC4B4693E701235A46314641
:103730002846B84701303FF4F8AE0AF1010AEEE737
:10374000FFFFEF7F1A6100081E6100082261000878
:10375000266100082A610008A36DDDF838A05345F2
:10376000A8BF5346002B994636DC4FF0000B29EAE0
:10377000E97904F11A02A36D0A93A3EB09035B45EF
:1037800031DC0D9B9A453ADC2368DA0737D40D9B70
:10379000AAEB03090A9BAAEB03039945A8BF994624
:1037A000B9F1000F33DC4FF0000829EAE97904F1A0
:1037B0001A0B0D9BAAEB0303A3EB090343457FF709
:1037C0007AAF01235A4631462846B84701303FF4C4
:1037D000ACAE08F10108ECE7424631462846B8474E
:1037E0000130C2D1A1E60123314628460A92B847EA
:1037F00001303FF49AAE0A9A0BF1010BBBE7314658
:10380000DDE908232846B8470130C0D18DE60A9A81
:103810004B46314628464244B8470130C3D184E67E
:10382000DDF838A0BAF1010F01DCDB0736D5012342
:10383000424631462846B84701303FF476AEDDE9CE
:10384000082331462846B84701303FF46EAED4E92C
:103850001201002200230AF1FF3AFDF7A5F8C0B9D2
:10386000534608F1010231462846B84701300CD1D1
:103870005BE601235A4631462846B84701303FF4FB
:1038800054AE08F10108D045F3DB4B4604F1500279
:10389000E0E64FF0000804F11A0BF4E7012342467A
:1038A000E1E701234A4631462846B84701303FF454
:1038B0003CAE08F10108E3680F995B1A4345F0DC60
:1038C000FDE64FF0000804F11909F4E72DE9F0478F
:1038D000164698468A680B6907469342B8BF134656
:1038E000336091F843200C46DDF820900AB1013393
:1038F00033602368990642BF33680233336025681A
:1039000015F0060506D104F1190AE36832689B1A1E
:10391000AB422BDC94F843302268003B18BF0123F4
:10392000920630D44146384604F14302C84701307C
:1039300023D02368226903F00603042B14BF00255B
:1039400033684FF0000608BFE56804F11A0408BFA9
:10395000ED1A54F8123C08BF25EAE5759342C4BF3E
:103960009B1AED18B5421AD1002008E001235246F7
:1039700041463846C847013003D14FF0FF30BDE81B
:10398000F0870135C1E73020E11881F843005A1C67
:1039900094F845102244023382F84310C2E7012311
:1039A000224641463846C8470130E6D00136D9E7BD
:1039B0002DE9FF470F7E9146782F80460C469A46A8
:1039C0000C9E01F1430207D8622F0AD8002F00F0A5
:1039D000D380582F00F0BA8004F1420684F8427078
:1039E0003AE0A7F16303152BF6D801A151F823F0B3
:1039F000493A00085D3A0008D9390008D939000869
:103A0000D9390008D93900085D3A0008D9390008C9
:103A1000D9390008D9390008D93900085F3B0008B6
:103A2000873A0008193B0008D9390008D93900083D
:103A3000813B0008D9390008873A0008D9390008C5
:103A4000D9390008213B000833681A1D1B68326011
:103A500004F1420684F8423001239EE03368206876
:103A6000191D3160060601D51D6803E04506FBD52A
:103A7000B3F90050002D03DA2D236D4284F8433052
:103A80000A23594811E021683368080653F8045B9B
:103A900002D4490648BFADB26F2F336014BF0A236A
:103AA00008235148002184F843106668002EA8BFFF
:103AB0002168A660A4BF21F0040121600DB9002E89
:103AC0004BD01646B5FBF3F103FB1157C75D06F863
:103AD000017D2F46BB420D46F4D9082B0BD123683C
:103AE000DF0708D5236961689942DEBF302306F8F5
:103AF000013C06F1FF36921B22614B4621464046AF
:103B0000CDF800A003AAFFF7E1FE01304AD14FF043
:103B1000FF3004B0BDE8F087236843F02003236042
:103B20007827324884F84570236831681F0651F8B9
:103B3000045B02D45F0648BFADB23160D90744BF11
:103B400043F0200323601DB11023ABE72648E9E7CB
:103B5000236823F020032360F6E71646BDE73368A9
:103B60002568181D616930602E061B6801D5196033
:103B700002E06806FBD51980002316462361BCE7E6
:103B8000336800211A1D32601E686268304600F0FA
:103B900008FA08B1801B606063682361002384F821
:103BA0004330AAE73246494640462369D0470130B0
:103BB000ADD023689B0713D4E068039B9842B8BF3D
:103BC0001846A6E70123324649464046D047013011
:103BD0009DD00135E36803995B1AAB42F2DCEBE759
:103BE000002504F11906F5E72C6100083D61000885
:103BF000002310B50446C0E90033C0E904338360F4
:103C000081814366C2818361194608225C3000F0DD
:103C100048F90D4B246263620C4BA3620C4BE362C8
:103C20000C4B23630C4B9C4206D003F16802944278
:103C300002D0D0339C4205D104F15800BDE81040B9
:103C400000F0ACB910BD00BF1D3E00083F3E0008AB
:103C5000773E00089B3E000874020020024A034998
:103C6000034800F069B800BF0C0000200D5900089F
:103C70001C00002041680C4B10B59942044601D04D
:103C800001F044FEA168094B994202D0204601F0A0
:103C90003DFEE168064B994204D02046BDE8104045
:103CA00001F034BE10BD00BF74020020DC02002011
:103CB0004403002010B50B4B0B4C0C4A20461A60F5
:103CC00004210022FFF794FF04F16800012209217A
:103CD000FFF78EFF04F1D0000222BDE81040122150
:103CE000FFF786BFAC030020740200205D3C000893
:103CF000014800F054B900BFB5030020014800F0AE
:103D00004FB900BFB503002010B50446FFF7F0FF20
:103D1000236A1BB1BDE81040FFF7F0BF044B2362DC
:103D2000044B1B68002BF5D1FFF7C4FFF2E700BF7F
:103D3000753C0008AC0300202DE9F843074688468F
:103D400014460026D4E90195B9F1010905D5246886
:103D5000002CF7D13046BDE8F883AB89012B07D999
:103D6000B5F90E30013303D029463846C047064323
:103D70006835E9E70CB430B5174B0C1E1D689DB0D3
:103D800008DA8B234FF0FF302B601DB0BDE83040C8
:103D900002B070474FF40273ADF814300CBF2346E5
:103DA00004F1FF33049307934FF6FF7302900690DC
:103DB000ADF81630284621AB209A02A9019301F0F4
:103DC00029FC431CBCBF8B232B60002CDDD00022C0
:103DD000029B1A70D9E700BF180000200EB46FF0E4
:103DE000004100B59CB01DAB029006900791049174
:103DF0000848094953F8042B0591006802A901936A
:103E000001F008FC0022029B1A701CB05DF804EB64
:103E100003B07047180000200802FFFF10B50C46E1
:103E2000B1F90E1000F06CF80028ABBF636DA389E8
:103E30001B1823F48053ACBF6365A38110BD2DE92B
:103E4000F0411F468B890546DB050C46164605D515
:103E500002230022B1F90E1000F040F8A389324687
:103E600023F48053A38128463B46B4F90E10BDE8E5
:103E7000F04100F057B810B50C46B1F90E1000F043
:103E80002DF8431CA38915BF606523F4805343F4C8
:103E90008053A38118BFA38110BDB1F90E1000F0AB
:103EA0000DB803460244934200D1704703F8011B4A
:103EB000F9E70000004870475801002038B500239A
:103EC000054D044608462B60FDF72DFB431C02D12F
:103ED0002B6803B1236038BDB003002038B5044619
:103EE000084611460022054D2A601A46FDF73FFBA1
:103EF000431C02D12B6803B1236038BDB0030020FE
:103F000038B50446084611460022054D2A601A4677
:103F1000FDF7D0FA431C02D12B6803B1236038BDF2
:103F2000B003002038B50446084611460022054D6E
:103F30002A601A46FDF7DBFA431C02D12B6803B155
:103F4000236038BDB0030020014B1868704700BFE4
:103F50001800002070B500260C4D0D4C641BA410F9
:103F6000A64209D102F06EF800260A4D0A4C641BE5
:103F7000A410A64205D170BD55F8043B9847013600
:103F8000EEE755F8043B98470136F2E790640008E5
:103F900090640008906400089464000870477047BB
:103FA0007047034610B5C9B202449342184601D186
:103FB000002003E0047801338C42F6D110BD2DE9D6
:103FC000F74F03690C690746A3427EDB013CA3005F
:103FD00000F1140501F11408009305EB840301932B
:103FE00058F8243055F8242001339A42B2FBF3F6F6
:103FF00008EB84092ED34FF0000AC446AE46D346E0
:104000005CF8043B98B206FB00A01B0C020C06FBFC
:104010000323DEF8002080B292B2121A5A44DEF86E
:1040200000004FEA134A9BB2C3EB224303EB104359
:1040300092B242EA0342E1454FEA234B4EF8042B89
:10404000DED2009BEB582BB9019B043B9D421A46E4
:104050002FD33C61384601F079F9002825DB294649
:10406000002058F8042BD1F800C01FFA82FE1FFA76
:104070008CF3A3EB0E030344120CC2EB234202EBBE
:104080001C429BB243EA0243C1454FEA224041F839
:10409000043BE6D255F8242005EB840322B9043B07
:1040A0009D421A460BD33C610136304603B0BDE851
:1040B000F08F1268043B002ACBD1013CC6E712689E
:1040C000043B002AEFD1013CEAE70020EEE70000C4
:1040D0002DE9F04F14461D46C76997B08346CDE9D8
:1040E0000245239E7FB9102000F002FE0246CBF865
:1040F0001C0020B9EF21A84BA84801F067FCC0E9DB
:1041000001770760C760DBF81C30196859B15A683D
:10411000012393404A608B60584600F0DFFE002286
:10412000DBF81C301A602B1EAFBF0023012223F0E6
:1041300000430393A8BF3360DDF80C80984BB8BFF1
:10414000326033EA080312D142F20F73229A1360ED
:10415000C8F31303234300F05085249BDFF844A2E7
:10416000002B00F052850AF1030300F04CBDDDE99D
:104170000223CDE90C23DDE90C0100220023FCF72A
:1041800013FC074658B10123229A1360249B13B1F4
:10419000854B249A1360DFF814A200F036BD14ABEF
:1041A000019315AB00935846DDE90C2301F07EF92D
:1041B000C8F30A568146002E77D0DDE90C010D9B2D
:1041C000A6F2FF36C3F3130343F07F5343F44013C7
:1041D000129719460022764BFBF7C6FF68A3D3E976
:1041E0000023FCF779F968A3D3E90023FBF7BEFFAE
:1041F000044630460D46FCF705F965A3D3E90023D4
:10420000FCF76AF902460B4620462946FBF7AEFF4B
:1042100004460D46FCF710FC00220746002320460A
:104220002946FCF7CBFB40B13846FCF7EBF82246B9
:104230002B46FCF7B9FB00B9013F162F53D8DDE937
:104240000C015C4B03EBC703D3E90023FCF7B6FB7F
:1042500000284AD00023013F0F93149B9B1B5A1E3A
:1042600046BFC3F1010800234FF00008099248BF80
:104270000993002F3BDB099B0E973B4409930023D6
:104280000A93209B092B66D8052BC4BF043B2093BF
:10429000209BC8BF0024A3F10203D8BF0124032B35
:1042A00064D8DFE803F02B383656DDE914631E448A
:1042B00006F23243202BC1BFC3F1400308FA03F8D2
:1042C00006F2124324FA03F3D6BFC3F1200348EAEF
:1042D000030004FA03F0FCF785F80122A1F1F8735A
:1042E000013E129275E70123B6E70F90B5E77B42D6
:1042F0000A930023A8EB07080E93C2E700230B9351
:10430000219B002B35DC01231A46CDE9073321928E
:104310000BE00123F3E700230B93219BFB18089389
:104320000133012B0793B8BF012300210422DBF8DE
:104330001C0002F114059D421FD94160584600F04F
:104340008DFD8246002839D1024640F2AF111A4B4A
:10435000D2E60123E0E7012400230B9420934FF0E1
:10436000FF330022CDE907331223D0E701230B935B
:10437000F5E7219BCDE90733D7E701315200D8E7B4
:1043800061436F63A787D23FB3C8608B288AC63F5B
:10439000FB799F501344D33F5B61000872610008B2
:1043A0000000F07F576100082B6100082A610008B7
:1043B0000000F83F68620008CA610008DBF81C30A2
:1043C0001860079B0E2B00F2A480002C00F0A18047
:1043D000002F33DD864B07F00F0203EBC203F80515
:1043E000D3E90034CDE904344FEA271416D5DDE9CA
:1043F0000C01804B0326D3E90823FCF797F9CDE99C
:10440000020104F00F047B4D54B9DDE90423DDE91A
:104410000201FCF78BF9CDE9020128E00226F2E760
:10442000E10708D5DDE90401D5E90023FCF754F8DC
:10443000CDE90401013664100835E5E700F0D280CB
:10444000DDE90C017C426A4B04F00F0203EBC2036E
:10445000D3E90023FCF740F802260023CDE902014E
:10446000644D2411002C40F0B280002BD3D1DDE943
:1044700002450F9B002B00F0B78000222046294602
:104480005D4BFCF79BFA002800F0AE80079B002BE9
:1044900000F0AA80089B002B37DD7B1E204604938A
:1044A00000222946554BFCF717F8CDE90201089C7C
:1044B00001363046FBF7A6FFDDE90223FCF70CF8D6
:1044C00000224F4BFBF752FE0546A1F15076002C1F
:1044D00040F09A80DDE9020100224A4BFBF744FEDE
:1044E00002460B46CDE902232A463346FCF784FAFE
:1044F000002840F08E82DDE902012A4606F10043E1
:10450000FCF75CFA002840F02781DDE90C34CDE9A6
:104510000234159B002BC0F263810E2F00F36081E3
:10452000334B03EBC703D3E90034CDE90434219BBB
:10453000002B03DA079B002B40F30081DDE90245E5
:104540005646DDE9042320462946FCF7EFF8FCF740
:1045500073FA8046FBF756FFDDE90423FBF7BCFF47
:1045600002460B4620462946FBF7FEFD08F13004C3
:10457000079D06F8014BA6EB0A04A54202460B462E
:1045800040F01681FBF7F2FDDDE9042304460D46F9
:10459000FCF732FA002840F0F880DDE904232046D9
:1045A0002946FCF701FA18B118F0010F40F0ED8030
:1045B0004946584600F092FC00233370229B013795
:1045C0001F60249B002B00F020831E601DE3E20788
:1045D00005D5D5E90023FBF77FFF012301366410E1
:1045E00008353FE7022642E7079C049761E700BFD2
:1045F00068620008406200080000F03F00002440AC
:1046000000001C4000001440704B0B9903EBC403E6
:1046100053E902235444002945D000206C49FCF79B
:1046200085F833462A46FBF79FFD5646CDE9100133
:10463000DDE90201FCF700FA0546FBF7E3FE02465E
:104640000B46DDE90201FBF78FFD02460B463035D4
:10465000CDE90223DDE9102306F8015BFCF7AEF992
:10466000002863D1DDE9022300205A49FBF77CFDD5
:10467000DDE91023FCF7A2F9002840F08780A6426C
:104680003FF443AFDDE910010022534BFBF724FF59
:104690000022CDE91001DDE902014F4BFBF71CFFC1
:1046A000CDE90201C4E731462846FBF715FF56461F
:1046B000CDE910011394DDE90201FCF7BDF90546CF
:1046C000FBF7A0FE02460B46DDE90201FBF74CFDBD
:1046D00002460B46303506F8015BA642CDE90223BF
:1046E0004FF0000224D1DDE91001394BFBF73EFD0C
:1046F00002460B46DDE90201FCF77EF9002845D1B0
:10470000DDE9102300203249FBF72EFD02460B465F
:10471000DDE90201FCF752F900283FF4F6AE139EE2
:10472000731E139316F8013C302BF8D0049F3FE71B
:10473000294BFBF7D1FECDE90201BCE70CD1DDE945
:1047400004010022254BFBF7C7FEDDE90223FCF73D
:1047500049F9002800F05B8100242546219B56463C
:10476000DB43049300272146584600F0B7FB002D99
:10477000DCD02FB1AF4203D03946584600F0AEFB33
:104780002946584600F0AAFBD0E7049733461E4658
:1047900013F8012D392A07D19A45F8D1049A01322C
:1047A000049230228AF800201A7801321A70BDE78C
:1047B0000022094BFBF790FE0022002304460D4621
:1047C000FCF7F2F800283FF4BCAEF1E6686200089E
:1047D0000000E03F0000F03F0000244000001440D3
:1047E0000B9A002A00F0DB80209A012A00F3BF8098
:1047F000129A002A00F0B78003F2334346460A9C1F
:10480000099A01211A4458469844099200F01AFC6A
:1048100005465EB1099B002B08DDB342A8BF3346B5
:10482000099AA8EB0308F61AD31A09930A9BF3B165
:104830000B9B002B00F0B7808CB1294622465846CE
:1048400000F0BEFC4A4601460546584600F010FC02
:1048500049460490584600F041FB049B99460A9B48
:104860001A1B04D04946584600F0AAFC8146012193
:10487000584600F0E7FB0E9B0446002B00F0C98170
:104880001A460146584600F09BFC209B0446012B2B
:1048900000F38F80029B002B40F08780039BC3F3C3
:1048A0001303002B40F08380039B23F000431B0D78
:1048B0001B052BB1099B08F1010801330993012362
:1048C0000A930E9B002B00F0AA81236904EB83035B
:1048D000186900F06BFBC0F12000099B184410F030
:1048E0001F0071D0C0F12003042B65DD099BC0F1CE
:1048F0001C000344804406440993B8F1000F05DD11
:1049000049464246584600F0B5FC8146099B002BBB
:1049100005DD21461A46584600F0ACFC04460F9BC4
:10492000002B53D02146484600F010FD00284DDAF8
:104930007B1E494604930A220023584600F0F0FAF1
:104940000B9B8146002B00F06C81002329460A2234
:10495000584600F0E5FA089B0546002B61DC209BD9
:10496000022B3BDC5DE0149BC3F1360346E7079B5B
:104970005C1E0A9BA342BFBF0A9B0E9AE31AD21881
:10498000A8BF1C1B079BBEBF0A940E920024002BDD
:10499000B5BFA8EB030646460023079B30E7464613
:1049A0000A9C0B9D35E70A9A5CE7002388E7029B87
:1049B00086E700230A9388E79FD0099A1C331A449C
:1049C00098441E44099298E70346F6E7079B04972C
:1049D000002B20DC0893209B022B1EDD089B002B64
:1049E0007FF4BCAE21460522584600F099FA0146F4
:1049F0000446484600F0AAFC00287FF7AFAE3123FA
:104A0000564606F8013B049B01330493AAE6079C33
:104A100004972546F3E7079B08930B9B002B00F0B8
:104A20000481002E05DD29463246584600F022FC5E
:104A300005460A9B002B5AD05846696800F00EFACA
:104A4000064628B9024640F2EF21834BFFF754BBDC
:104A50002A6905F10C01023292000C3000F0A8FF27
:104A600001223146584600F005FC2F4605460AF162
:104A700001030793089B53440B93029B03F001032C
:104A80000A93079B2146013B48460293FFF797FA9A
:104A90003946089000F13008484600F057FC2A4695
:104AA00009902146584600F06DFCC268064602BBDC
:104AB0000146484600F04AFC0246314658460C92F0
:104AC00000F00CFA209B0C9A079E43EA02010A9B15
:104AD000194310D1B8F1390F29D0099B002B02DD01
:104AE000089B03F13108029B83F800803BE62846CF
:104AF000BBE70122E1E7099B002B04DB20990B4374
:104B00000A990B4320D1002AEDDD4946012258467F
:104B100000F0B0FB2146814600F018FC002803DCC1
:104B2000E1D118F0010FDED0B8F1390FD8D1392317
:104B3000029A137033461E4616F8012C013B392A9F
:104B400052D001321A700EE6002A07DDB8F1390F93
:104B5000EDD0029A08F10103137004E6079B079A4F
:104B600003F8018C0B9B934228D0494600230A226C
:104B7000584600F0D5F9AF4281464FF000034FF0A0
:104B80000A023946584607D100F0CAF907460546D9
:104B9000079B0133079374E700F0C2F929460746E3
:104BA00000230A22584600F0BBF90546F0E7089BAF
:104BB0000027002BCCBF1E46012656444946012241
:104BC000584600F057FB2146814600F0BFFB002805
:104BD000B0DC02D118F0010FACD133461E4613F8F9
:104BE000012D302AFAD0BEE59A45A4D1049B0133A9
:104BF000049331238AF80030B5E5249BDFF85CA0EC
:104C00001BB10AF10803249A1360504617B0BDE89F
:104C1000F08F209B012B7FF73DAE0E9B0A93012066
:104C20005BE6089B002B7FF7D6AE564621464846EA
:104C3000FFF7C5F900F13008089B06F8018BA6EBD9
:104C40000A029342B3DD494600230A22584600F087
:104C500067F98146EAE700BFCA6100084E610008B3
:104C600038B50546002940D051F8043C0C1F002BF4
:104C7000B8BFE41800F0E6F81C4A136833B9636063
:104C800014602846BDE8384000F0E2B8A34208D9D5
:104C9000206821188B4201BF19685B6809182160E0
:104CA000EDE71A465B680BB1A342FAD911685018B8
:104CB000A0420BD120680144501883421160E0D11A
:104CC00018685B68084410605360DAE702D90C2367
:104CD0002B60D6E7206821188B4201BF19685B68FA
:104CE0000918216063605460CBE738BDBC03002025
:104CF000024B0146186800F025B800BF18000020DC
:104D000070B50F4E0C463168054611B900F040FEF3
:104D100030602146284600F03BFE431C03D14FF093
:104D2000FF34204670BDC41C24F00304A042F8D018
:104D3000211A284600F02CFE0130F2D1EFE700BF27
:104D4000B80300202DE9F843CD1C25F003050835F4
:104D50000C2D38BF0C25002D064601DBA94204D9D5
:104D60000C2333600020BDE8F883DFF8D48000F026
:104D700069F8D8F800301C4644BB29463046FFF796
:104D8000BFFF431C044658D1D8F800402746002FE7
:104D900043D1002C4BD023683946304604EB03093D
:104DA00000F0F6FD814542D1216830466D1A294652
:104DB000FFF7A6FF01303AD023682B442360D8F8D0
:104DC00000305A6862BBC8F800700FE02268521BBE
:104DD00020D40B2A17D96119A342256018BF596046
:104DE000636808BFC8F8001062514B60304600F09D
:104DF0002FF804F10B00231D20F00700C21A1CBF7E
:104E00001B1AA350AFE76268A3420CBFC8F800208A
:104E10005A60EBE723466468AEE73C467F68B6E736
:104E20001A465B68A342FBD100235360DEE70C23E4
:104E30003046336000F00CF894E70560D6E700BF19
:104E4000BC0300200148FFF7AAB800BFB40300204C
:104E50000148FFF7A5B800BFB403002070B5C669CC
:104E600004460D4676B91020FFF742FF0246E06186
:104E700020B96B21174B184800F0A8FDC0E9016666
:104E80000660C660E669F36883B1E369DB6853F8DE
:104E90002500B8B9012101FA05F6721D20469200DD
:104EA00000F0B2FD60B1C0E901560EE021220421FC
:104EB000204600F0A9FDE369F060DB68002BE4D137
:104EC000002070BD026843F825200023C0E90333A9
:104ED000F7E700BF5B610008DB61000870B5C669D9
:104EE00005460C4676B91020FFF702FF0246E8613E
:104EF00020B98F21084B094800F068FDC0E9016620
:104F00000660C6603CB1EB696268DB6853F822104A
:104F1000216043F8224070BD5B610008DB6100083E
:104F20002DE9F04107460C461E4600200D6901F1AF
:104F3000140CDCF80030013099B202FB01611E0C48
:104F40000B0C02FB063389B201EB034185424FEAA9
:104F500013464CF8041BECDC0EB3A368AB4219DC1F
:104F6000616838460131FFF779FF804628B902466B
:104F7000BA210C4B0C4800F029FD226904F10C0108
:104F8000023292000C3000F013FD21463846FFF744
:104F9000A5FF444604EB850301355E61256120468B
:104FA000BDE8F081CA610008DB6100080346B0F586
:104FB000803F3ABF030410200020B3F1807F3CBF44
:104FC0001B020830B3F1805F3CBF1B010430B3F11A
:104FD000804F3CBF9B000230002B05DB13F0804F5D
:104FE00000F1010008BF202070470368024613F05B
:104FF00007000BD0D90721D4980749BF5B089B084D
:10500000012013605CBF02201360704799B209B998
:1050100010201B0CD9B209B908301B0A190704BFAC
:105020001B090430990704BF9B080230D90703D439
:105030005B0800F1010003D0136070470020704747
:105040002020704710B50C460121FFF707FF0246EC
:1050500028B940F24511044B044800F0B7FC012385
:105060004461036110BD00BFCA610008DB61000834
:105070002DE9F04F14460A6923690F469A42A2BFF0
:1050800023460C461F46D4F810A0D7F81090A3680A
:1050900061680AEB0906B34285B0B8BF0131FFF77A
:1050A000DDFE30B902464FF4B171434B434800F086
:1050B0008DFC00F114052B46002205EB86084345C4
:1050C00021D307F1140104F1140202EB8A0201EB6F
:1050D00089030293131B153B23F00303043304F1EC
:1050E0001507BA4238BF04230193029B03918B42F8
:1050F0000CD8002E03DD58F8043D002B5AD0066171
:1051000005B0BDE8F08F43F8042BD8E7B1F800A054
:10511000BAF1000F23D0A9464FF0000C04F1140E91
:105120005EF8047BD9F800301FFA87FB9BB20AFBBC
:105130000B336344D9F800C03F0C4FEA1C4C0AFB08
:1051400007C707EB13479BB243EA074372454FEA91
:10515000174C49F8043BE3D8019B45F803C0039B77
:105160000431B3F80290B9F1000F21D0AE464FF0F0
:10517000000A2B6804F1140CBCF800B0BEF80270F1
:105180009BB209FB0B77574443EA07434EF8043BB5
:105190005CF8043B4FEA134ABEF80030624509FB55
:1051A0000A3303EB17434FEA134AE5D8019FEB514B
:1051B00004359AE7013E9CE7CA610008DB610008FC
:1051C0002DE9F843154612F0030207460E4607D0B4
:1051D000254C013A002354F82220FFF7A1FE064691
:1051E000AD103DD0FC697CB91020FFF781FD02466F
:1051F000F86128B940F2B3111C4B1D4800F0E6FBE2
:10520000C0E901440460C460D7F81C80D8F80840A5
:105210004CB940F271213846FFF714FF00230446D1
:10522000C8F8080003604FF00009EB070AD53146C3
:1052300022463846FFF71CFF804631463846FFF7C6
:105240004DFE46466D100BD0206838B922462146E7
:105250003846FFF70DFF2060C0F800900446E4E7F1
:105260003046BDE8F88300BF346200085B61000887
:10527000DB6100082DE9F0470C460746914623699B
:10528000496803EB6218A3684FEA621A08F1010645
:10529000B3420BDB3846FFF7E1FD054648B902464D
:1052A0004FF4EF71274B284800F090FB01315B0071
:1052B000EEE7002300F1140100F1100218465345F7
:1052C00033DB20692AEAEA7A04F1140319F01F0992
:1052D00001EB8A0103EB800C2BD08A460022C9F136
:1052E000200E186800FA09F010434AF8040B53F82E
:1052F000042B9C4522FA0EF2F3D8ACEB0403153BC9
:1053000023F00303043304F11500844538BF04235C
:10531000CA500AB108F10206013E384621462E6104
:10532000FFF7DCFD2846BDE8F08742F8040F0133A3
:10533000C5E7043953F8042B9C4541F8042FF9D8EC
:10534000EAE700BFCA610008DB61000803460A699A
:10535000006930B5801A0ED11433143103EB820486
:1053600001EB820154F8045D51F8042D954203D0FD
:1053700005D24FF0FF3030BDA342F3D3FBE701204D
:10538000F9E700002DE9F74F8946064611464846E1
:105390001446FFF7DBFF051E12D129463046FFF702
:1053A0005DFD024628B940F237213E4B3E4800F0F1
:1053B0000DFB0123C0E90435104603B0BDE8F08FB2
:1053C000BCBF4B46A1463046D9F80410BABF1C46B4
:1053D00001250025FFF742FD024618B940F245219C
:1053E000304BE3E700F1140BD9F8107009F110030A
:1053F000C5604FF0000C09F11405D946266904F187
:10540000140E05EB87080EEB86060193019B5EF8F0
:10541000040B53F804AF81B201931FFA8AF35B1AAD
:10542000000C6344C0EB1A4000EB23409BB243EAFC
:10543000004376454FEA204C49F8043BE6D8331B3D
:10544000153B23F0030315340433A64238BF04236D
:105450001D445B441E462C4644450ED308F103010F
:10546000491B21F00301033DA84538BF00210B442F
:1054700053F8041D99B117619EE7E64654F8041BE2
:105480001FFA81FCF444080C714400EB2C4089B2F3
:1054900041EA00414FEA204C46F8041BDCE7013F9B
:1054A000E6E700BFCA610008DB6100082DE973432D
:1054B000012190469946089EFFF7D0FC044630B97A
:1054C000024640F20F31234B234800F07FFAC9F324
:1054D0000A55C9F313030DB143F480130193B8F1D6
:1054E000000324D068460093FFF77FFDDDE900123A
:1054F000D8B1C0F1200302FA03F30B43C240636149
:105500000192019B002B0CBF01220222A3612261A8
:10551000ADB1A5F2334505443560C0F13500099BB6
:105520001860204602B0BDE870836161E9E701A818
:10553000FFF75BFD019B012263612030E7E7A0F2EA
:10554000324004EB820330601869FFF72FFDC0EB97
:105550004210E4E7CA610008DB6100082DE9F0476A
:105560001F468E688246BE420C4690460B682DD878
:10557000B1F90C2012F4906F26D06569096905EB2A
:105580004505A3EB010905EBD5757B1C4B446D105C
:105590009D4238BF1D46530527D52946FFF7D2FB4C
:1055A000064660B34A46216900F002FAA38923F453
:1055B000906343F08003A38126614E4426603E46FB
:1055C0006561A5EB0905A560BE4200D93E4632469D
:1055D0004146206800F0C2F90020A3689B1BA3602D
:1055E000236833442360BDE8F0872A4600F032FA8E
:1055F00006460028E0D150462169FFF731FB0C2315
:10560000CAF80030A3894FF0FF3043F04003A38174
:10561000E9E700002DE9F04F98468B8907461B0605
:105620000D4614469DB010D50B6973B94021FFF7A4
:1056300089FB2860286130B90C233B604FF0FF30B4
:105640001DB0BDE8F08F40236B6100230993202338
:105650008DF8293030234FF00109CDF80C80DFF8A8
:1056600098818DF82A3023469A4613F8012B0AB107
:10567000252AF9D1BAEB040B0BD05B46224629460A
:105680003846FFF76BFF013000F0A780099A5A44B3
:1056900009929AF80030002B00F09F8000234FF011
:1056A000FF32CDE905230AF1010A049307938DF82F
:1056B00053301A935446052214F8011B4E48FEF746
:1056C00070FC049AD8B9D00644BF20238DF853301B
:1056D000110744BF2B238DF853309AF800302A2B42
:1056E00015D0544600204FF00A0C079A214611F8B5
:1056F000013B303B092B4BD9B0B1079214E0A0EB32
:10570000080309FA03F31343A2460493D2E7039B69
:10571000191D1B680391002BBBBF5B4242F00202C4
:1057200007930793B8BF049223782E2B0AD163788E
:105730002A2B32D1039B02341A1D1B68039243EAC1
:10574000E3730593DFF8B4A0032250462178FEF7F7
:1057500028FC38B14022049BA0EB0A00824013438E
:105760000134049314F8011B062225488DF82810F3
:10577000FEF717FC002836D0224B1BBB039B0733D8
:1057800023F0070308330393099B334409936AE723
:105790000C4601200CFB0232A8E700234FF00A0C54
:1057A000194601340593204610F8012B303A092A96
:1057B00003D9002BC6D00591C4E7044601230CFB96
:1057C0000121F0E703AB00932A4638460E4B04A9AB
:1057D000FDF750FE421C0646D6D1AB895B063FF56D
:1057E0002DAF09982CE703AB00932A463846064BA9
:1057F00004A9FEF7DDF8EDE7306300083663000822
:105800003A630008753400085D550008B1F90C20B2
:10581000F8B5160705460C4654D44B68002B02DC3D
:105820000B6C002B48DDE66A002E45D0002312F4F5
:1058300080522F68216A2B6030D0626DA38959078E
:1058400005D56368D21A636B0BB1236CD21A00239F
:105850002846E66A216AB047431CA38906D1296815
:105860001D292BD8284A0A41D60727D40022626076
:105870002269D904226004D5421C01D12B6803B9E6
:105880006065616B2F60B9B104F14403994202D0A5
:105890002846FFF7E5F9002363630DE0012328465E
:1058A000B0470246501CC9D12B68002BC6D01D2B17
:1058B00001D0162B1DD12F60002021E043F04003C2
:1058C0001BB21AE00F69002FF6D0930718BF002310
:1058D0000E6808BF4B69F61B0F608B60002EEBDD76
:1058E00033463A462846216AD4F828C0E0470028C3
:1058F00007DCB4F90C3043F040034FF0FF30A381D4
:10590000F8BD0744361AE9E7FEFFBFDF38B50B697B
:1059100005460C4613B90025284638BD18B1036A60
:105920000BB9FEF7F1F9B4F90C30002BF3D0626E2D
:10593000D00704D4990502D4A06DFEF730FB2846A9
:105940002146FFF763FF636E0546DA07E4D4A389B7
:105950009B05E1D4A06DFEF723FBDDE7884210B57F
:1059600001EB020402D98442234607D8431EA14218
:1059700008D011F8012B03F8012FF8E70146024483
:105980008A4200D110BD13F8014D02F8014DF7E72E
:1059900038B50023054D044608462B60FBF7F4FD9F
:1059A000431C02D12B6803B1236038BDB003002033
:1059B0000A44914200F1FF3300D1704710B511F84D
:1059C000014B914203F8014FF9D110BD1FB51446A8
:1059D0001A46094B05461B68D86854B9074B1C4644
:1059E000CDE9013400912B46054900F06FF800F035
:1059F0007FF8044BF4E700BF18000020866300081E
:105A0000586300084B63000870B5A1FB02543CB911
:105A10002946FFF797F9064628B90026304670BD9B
:105A20000C220260F9E72A462146FEF73AFAF5E72A
:105A300082B001B901A942B14BB113780B60127861
:105A4000101E18BF012002B070471046FBE76FF030
:105A50000100F8E72DE9F041804615460C4621B9D2
:105A60001146BDE8F041FFF76DB92AB9FFF7F8F824
:105A700000242046BDE8F08100F041F8854206464A
:105A800002D8B5EB500FF4D829464046FFF75AF933
:105A900007460028ECD0B5422A46214628BF3246A8
:105AA000FFF786FF21464046FFF7DAF83C46E0E77D
:105AB0000346084641B1FF2A04D98A224FF0FF303D
:105AC0001A60704701200A70704700000EB403B5D9
:105AD000014603AB054853F8042B0068019300F01E
